{
  "contractName": "TasksContract",
  "abi": [
    {
      "inputs": [],
      "stateMutability": "nonpayable",
      "type": "constructor"
    },
    {
      "anonymous": false,
      "inputs": [
        {
          "indexed": false,
          "internalType": "uint256",
          "name": "id",
          "type": "uint256"
        },
        {
          "indexed": false,
          "internalType": "string",
          "name": "title",
          "type": "string"
        },
        {
          "indexed": false,
          "internalType": "string",
          "name": "description",
          "type": "string"
        },
        {
          "indexed": false,
          "internalType": "bool",
          "name": "done",
          "type": "bool"
        },
        {
          "indexed": false,
          "internalType": "uint256",
          "name": "createdAt",
          "type": "uint256"
        }
      ],
      "name": "TaskCreated",
      "type": "event"
    },
    {
      "anonymous": false,
      "inputs": [
        {
          "indexed": false,
          "internalType": "uint256",
          "name": "id",
          "type": "uint256"
        },
        {
          "indexed": false,
          "internalType": "bool",
          "name": "done",
          "type": "bool"
        }
      ],
      "name": "TaskToggledDone",
      "type": "event"
    },
    {
      "inputs": [
        {
          "internalType": "uint256",
          "name": "",
          "type": "uint256"
        }
      ],
      "name": "tasks",
      "outputs": [
        {
          "internalType": "uint256",
          "name": "id",
          "type": "uint256"
        },
        {
          "internalType": "string",
          "name": "title",
          "type": "string"
        },
        {
          "internalType": "string",
          "name": "description",
          "type": "string"
        },
        {
          "internalType": "bool",
          "name": "done",
          "type": "bool"
        },
        {
          "internalType": "uint256",
          "name": "createdAt",
          "type": "uint256"
        }
      ],
      "stateMutability": "view",
      "type": "function"
    },
    {
      "inputs": [],
      "name": "tasksCounter",
      "outputs": [
        {
          "internalType": "uint256",
          "name": "",
          "type": "uint256"
        }
      ],
      "stateMutability": "view",
      "type": "function"
    },
    {
      "inputs": [
        {
          "internalType": "string",
          "name": "_title",
          "type": "string"
        },
        {
          "internalType": "string",
          "name": "_description",
          "type": "string"
        }
      ],
      "name": "createTask",
      "outputs": [],
      "stateMutability": "nonpayable",
      "type": "function"
    },
    {
      "inputs": [
        {
          "internalType": "uint256",
          "name": "_id",
          "type": "uint256"
        }
      ],
      "name": "toggleDone",
      "outputs": [],
      "stateMutability": "nonpayable",
      "type": "function"
    },
    {
      "inputs": [
        {
          "internalType": "uint256",
          "name": "_id",
          "type": "uint256"
        }
      ],
      "name": "getTask",
      "outputs": [
        {
          "internalType": "uint256",
          "name": "id",
          "type": "uint256"
        },
        {
          "internalType": "string",
          "name": "title",
          "type": "string"
        },
        {
          "internalType": "string",
          "name": "description",
          "type": "string"
        },
        {
          "internalType": "bool",
          "name": "done",
          "type": "bool"
        },
        {
          "internalType": "uint256",
          "name": "createdAt",
          "type": "uint256"
        }
      ],
      "stateMutability": "view",
      "type": "function"
    },
    {
      "inputs": [],
      "name": "getTasks",
      "outputs": [
        {
          "components": [
            {
              "internalType": "uint256",
              "name": "id",
              "type": "uint256"
            },
            {
              "internalType": "string",
              "name": "title",
              "type": "string"
            },
            {
              "internalType": "string",
              "name": "description",
              "type": "string"
            },
            {
              "internalType": "bool",
              "name": "done",
              "type": "bool"
            },
            {
              "internalType": "uint256",
              "name": "createdAt",
              "type": "uint256"
            }
          ],
          "internalType": "struct TasksContract.Task[]",
          "name": "",
          "type": "tuple[]"
        }
      ],
      "stateMutability": "view",
      "type": "function"
    },
    {
      "inputs": [
        {
          "internalType": "uint256",
          "name": "_id",
          "type": "uint256"
        }
      ],
      "name": "deleteTask",
      "outputs": [],
      "stateMutability": "nonpayable",
      "type": "function"
    },
    {
      "inputs": [
        {
          "internalType": "uint256",
          "name": "_id",
          "type": "uint256"
        },
        {
          "internalType": "string",
          "name": "_title",
          "type": "string"
        },
        {
          "internalType": "string",
          "name": "_description",
          "type": "string"
        }
      ],
      "name": "updateTask",
      "outputs": [],
      "stateMutability": "nonpayable",
      "type": "function"
    },
    {
      "inputs": [],
      "name": "getAddress",
      "outputs": [
        {
          "internalType": "address",
          "name": "",
          "type": "address"
        }
      ],
      "stateMutability": "view",
      "type": "function"
    }
  ],
  "bytecode": "0x6080604052600080553480156200001557600080fd5b50620000926040518060400160405280600c81526020017f5072696d657220746172656100000000000000000000000000000000000000008152506040518060400160405280601881526020017f7072696d657220746172656120706f72206465666563746f00000000000000008152506200009860201b60201c565b62000487565b600080815480929190620000ac90620003ca565b91905055506040518060a00160405280600054815260200183815260200182815260200160001515815260200142815250600160008054815260200190815260200160002060008201518160000155602082015181600101908051906020019062000119929190620001ae565b50604082015181600201908051906020019062000138929190620001ae565b5060608201518160030160006101000a81548160ff021916908315150217905550608082015181600401559050507f6549102bed7d1bb5ec529ee14e2ca60ffc1f47f66d4cc6ca713220613cc64c256000548383600042604051620001a2959493929190620002c1565b60405180910390a15050565b828054620001bc9062000394565b90600052602060002090601f016020900481019282620001e057600085556200022c565b82601f10620001fb57805160ff19168380011785556200022c565b828001600101855582156200022c579182015b828111156200022b5782518255916020019190600101906200020e565b5b5090506200023b91906200023f565b5090565b5b808211156200025a57600081600090555060010162000240565b5090565b620002698162000348565b82525050565b60006200027c826200032c565b62000288818562000337565b93506200029a8185602086016200035e565b620002a58162000476565b840191505092915050565b620002bb8162000354565b82525050565b600060a082019050620002d86000830188620002b0565b8181036020830152620002ec81876200026f565b905081810360408301526200030281866200026f565b90506200031360608301856200025e565b620003226080830184620002b0565b9695505050505050565b600081519050919050565b600082825260208201905092915050565b60008115159050919050565b6000819050919050565b60005b838110156200037e57808201518184015260208101905062000361565b838111156200038e576000848401525b50505050565b60006002820490506001821680620003ad57607f821691505b60208210811415620003c457620003c362000447565b5b50919050565b6000620003d78262000354565b91507fffffffffffffffffffffffffffffffffffffffffffffffffffffffffffffffff8214156200040d576200040c62000418565b5b600182019050919050565b7f4e487b7100000000000000000000000000000000000000000000000000000000600052601160045260246000fd5b7f4e487b7100000000000000000000000000000000000000000000000000000000600052602260045260246000fd5b6000601f19601f8301169050919050565b61158580620004976000396000f3fe608060405234801561001057600080fd5b50600436106100935760003560e01c8063560f319211610066578063560f31921461012457806385c3e723146101405780638d9776721461015e578063c72ef41f14610192578063d81ef739146101ae57610093565b806304a87e38146100985780631d65e77e146100b6578063292a4585146100ea57806338cc483114610106575b600080fd5b6100a06101ca565b6040516100ad919061116a565b60405180910390f35b6100d060048036038101906100cb9190610ed4565b6103eb565b6040516100e19594939291906111d0565b60405180910390f35b61010460048036038101906100ff9190610e5c565b610595565b005b61010e6106a3565b60405161011b919061114f565b60405180910390f35b61013e60048036038101906101399190610ed4565b6106ab565b005b610148610708565b604051610155919061118c565b60405180910390f35b61017860048036038101906101739190610ed4565b61070e565b6040516101899594939291906111d0565b60405180910390f35b6101ac60048036038101906101a79190610f01565b610861565b005b6101c860048036038101906101c39190610ed4565b610a73565b005b60606000805467ffffffffffffffff8111156101e9576101e86114e4565b5b60405190808252806020026020018201604052801561022257816020015b61020f610cc3565b8152602001906001900390816102075790505b5090506000600190505b60005481116103e357600160008281526020019081526020016000206040518060a00160405290816000820154815260200160018201805461026d906113ab565b80601f0160208091040260200160405190810160405280929190818152602001828054610299906113ab565b80156102e65780601f106102bb576101008083540402835291602001916102e6565b820191906000526020600020905b8154815290600101906020018083116102c957829003601f168201915b505050505081526020016002820180546102ff906113ab565b80601f016020809104026020016040519081016040528092919081815260200182805461032b906113ab565b80156103785780601f1061034d57610100808354040283529160200191610378565b820191906000526020600020905b81548152906001019060200180831161035b57829003601f168201915b505050505081526020016003820160009054906101000a900460ff16151515158152602001600482015481525050826001836103b491906112ed565b815181106103c5576103c46114b5565b5b602002602001018190525080806103db9061140e565b91505061022c565b508091505090565b60006060806000806000600160008881526020019081526020016000206040518060a00160405290816000820154815260200160018201805461042d906113ab565b80601f0160208091040260200160405190810160405280929190818152602001828054610459906113ab565b80156104a65780601f1061047b576101008083540402835291602001916104a6565b820191906000526020600020905b81548152906001019060200180831161048957829003601f168201915b505050505081526020016002820180546104bf906113ab565b80601f01602080910402602001604051908101604052809291908181526020018280546104eb906113ab565b80156105385780601f1061050d57610100808354040283529160200191610538565b820191906000526020600020905b81548152906001019060200180831161051b57829003601f168201915b505050505081526020016003820160009054906101000a900460ff16151515158152602001600482015481525050905080600001518160200151826040015183606001518460800151955095509550955095505091939590929450565b6000808154809291906105a79061140e565b91905055506040518060a001604052806000548152602001838152602001828152602001600015158152602001428152506001600080548152602001908152602001600020600082015181600001556020820151816001019080519060200190610612929190610cf4565b50604082015181600201908051906020019061062f929190610cf4565b5060608201518160030160006101000a81548160ff021916908315150217905550608082015181600401559050507f6549102bed7d1bb5ec529ee14e2ca60ffc1f47f66d4cc6ca713220613cc64c2560005483836000426040516106979594939291906111d0565b60405180910390a15050565b600030905090565b600160008281526020019081526020016000206000808201600090556001820160006106d79190610d7a565b6002820160006106e79190610d7a565b6003820160006101000a81549060ff02191690556004820160009055505050565b60005481565b6001602052806000526040600020600091509050806000015490806001018054610737906113ab565b80601f0160208091040260200160405190810160405280929190818152602001828054610763906113ab565b80156107b05780601f10610785576101008083540402835291602001916107b0565b820191906000526020600020905b81548152906001019060200180831161079357829003601f168201915b5050505050908060020180546107c5906113ab565b80601f01602080910402602001604051908101604052809291908181526020018280546107f1906113ab565b801561083e5780601f106108135761010080835404028352916020019161083e565b820191906000526020600020905b81548152906001019060200180831161082157829003601f168201915b5050505050908060030160009054906101000a900460ff16908060040154905085565b6000600160008581526020019081526020016000206040518060a00160405290816000820154815260200160018201805461089b906113ab565b80601f01602080910402602001604051908101604052809291908181526020018280546108c7906113ab565b80156109145780601f106108e957610100808354040283529160200191610914565b820191906000526020600020905b8154815290600101906020018083116108f757829003601f168201915b5050505050815260200160028201805461092d906113ab565b80601f0160208091040260200160405190810160405280929190818152602001828054610959906113ab565b80156109a65780601f1061097b576101008083540402835291602001916109a6565b820191906000526020600020905b81548152906001019060200180831161098957829003601f168201915b505050505081526020016003820160009054906101000a900460ff1615151515815260200160048201548152505090508281602001819052508181604001819052508060016000868152602001908152602001600020600082015181600001556020820151816001019080519060200190610a22929190610cf4565b506040820151816002019080519060200190610a3f929190610cf4565b5060608201518160030160006101000a81548160ff0219169083151502179055506080820151816004015590505050505050565b6000600160008381526020019081526020016000206040518060a001604052908160008201548152602001600182018054610aad906113ab565b80601f0160208091040260200160405190810160405280929190818152602001828054610ad9906113ab565b8015610b265780601f10610afb57610100808354040283529160200191610b26565b820191906000526020600020905b815481529060010190602001808311610b0957829003601f168201915b50505050508152602001600282018054610b3f906113ab565b80601f0160208091040260200160405190810160405280929190818152602001828054610b6b906113ab565b8015610bb85780601f10610b8d57610100808354040283529160200191610bb8565b820191906000526020600020905b815481529060010190602001808311610b9b57829003601f168201915b505050505081526020016003820160009054906101000a900460ff1615151515815260200160048201548152505090508060600151158160600190151590811515815250508060016000848152602001908152602001600020600082015181600001556020820151816001019080519060200190610c37929190610cf4565b506040820151816002019080519060200190610c54929190610cf4565b5060608201518160030160006101000a81548160ff021916908315150217905550608082015181600401559050507f3a359256e016dcfa8426ec503e08484999d6fcfb8c0f6084dc9e63374d838429828260600151604051610cb79291906111a7565b60405180910390a15050565b6040518060a00160405280600081526020016060815260200160608152602001600015158152602001600081525090565b828054610d00906113ab565b90600052602060002090601f016020900481019282610d225760008555610d69565b82601f10610d3b57805160ff1916838001178555610d69565b82800160010185558215610d69579182015b82811115610d68578251825591602001919060010190610d4d565b5b509050610d769190610dba565b5090565b508054610d86906113ab565b6000825580601f10610d985750610db7565b601f016020900490600052602060002090810190610db69190610dba565b5b50565b5b80821115610dd3576000816000905550600101610dbb565b5090565b6000610dea610de584611256565b611231565b905082815260208101848484011115610e0657610e05611518565b5b610e11848285611369565b509392505050565b600082601f830112610e2e57610e2d611513565b5b8135610e3e848260208601610dd7565b91505092915050565b600081359050610e5681611538565b92915050565b60008060408385031215610e7357610e72611522565b5b600083013567ffffffffffffffff811115610e9157610e9061151d565b5b610e9d85828601610e19565b925050602083013567ffffffffffffffff811115610ebe57610ebd61151d565b5b610eca85828601610e19565b9150509250929050565b600060208284031215610eea57610ee9611522565b5b6000610ef884828501610e47565b91505092915050565b600080600060608486031215610f1a57610f19611522565b5b6000610f2886828701610e47565b935050602084013567ffffffffffffffff811115610f4957610f4861151d565b5b610f5586828701610e19565b925050604084013567ffffffffffffffff811115610f7657610f7561151d565b5b610f8286828701610e19565b9150509250925092565b6000610f9883836110b4565b905092915050565b610fa981611321565b82525050565b6000610fba82611297565b610fc481856112ba565b935083602082028501610fd685611287565b8060005b858110156110125784840389528151610ff38582610f8c565b9450610ffe836112ad565b925060208a01995050600181019050610fda565b50829750879550505050505092915050565b61102d81611333565b82525050565b61103c81611333565b82525050565b600061104d826112a2565b61105781856112cb565b9350611067818560208601611378565b61107081611527565b840191505092915050565b6000611086826112a2565b61109081856112dc565b93506110a0818560208601611378565b6110a981611527565b840191505092915050565b600060a0830160008301516110cc6000860182611131565b50602083015184820360208601526110e48282611042565b915050604083015184820360408601526110fe8282611042565b91505060608301516111136060860182611024565b5060808301516111266080860182611131565b508091505092915050565b61113a8161135f565b82525050565b6111498161135f565b82525050565b60006020820190506111646000830184610fa0565b92915050565b600060208201905081810360008301526111848184610faf565b905092915050565b60006020820190506111a16000830184611140565b92915050565b60006040820190506111bc6000830185611140565b6111c96020830184611033565b9392505050565b600060a0820190506111e56000830188611140565b81810360208301526111f7818761107b565b9050818103604083015261120b818661107b565b905061121a6060830185611033565b6112276080830184611140565b9695505050505050565b600061123b61124c565b905061124782826113dd565b919050565b6000604051905090565b600067ffffffffffffffff821115611271576112706114e4565b5b61127a82611527565b9050602081019050919050565b6000819050602082019050919050565b600081519050919050565b600081519050919050565b6000602082019050919050565b600082825260208201905092915050565b600082825260208201905092915050565b600082825260208201905092915050565b60006112f88261135f565b91506113038361135f565b92508282101561131657611315611457565b5b828203905092915050565b600061132c8261133f565b9050919050565b60008115159050919050565b600073ffffffffffffffffffffffffffffffffffffffff82169050919050565b6000819050919050565b82818337600083830152505050565b60005b8381101561139657808201518184015260208101905061137b565b838111156113a5576000848401525b50505050565b600060028204905060018216806113c357607f821691505b602082108114156113d7576113d6611486565b5b50919050565b6113e682611527565b810181811067ffffffffffffffff82111715611405576114046114e4565b5b80604052505050565b60006114198261135f565b91507fffffffffffffffffffffffffffffffffffffffffffffffffffffffffffffffff82141561144c5761144b611457565b5b600182019050919050565b7f4e487b7100000000000000000000000000000000000000000000000000000000600052601160045260246000fd5b7f4e487b7100000000000000000000000000000000000000000000000000000000600052602260045260246000fd5b7f4e487b7100000000000000000000000000000000000000000000000000000000600052603260045260246000fd5b7f4e487b7100000000000000000000000000000000000000000000000000000000600052604160045260246000fd5b600080fd5b600080fd5b600080fd5b600080fd5b6000601f19601f8301169050919050565b6115418161135f565b811461154c57600080fd5b5056fea2646970667358221220515cf8eb389d8a5b7820f45ee1cb45e80ce2ca102fb4dabfd0dc566952c5a9f664736f6c63430008060033",
  "immutableReferences": {},
  "source": "// SPDX-License-Identifier: MIT\npragma solidity ^0.8.6;\n\ncontract TasksContract {\n    uint256 public tasksCounter = 0;\n\n    struct Task {\n        uint256 id;\n        string title;\n        string description;\n        bool done;\n        uint256 createdAt;\n    }\n\n    event TaskCreated(\n        uint256 id,\n        string title,\n        string description,\n        bool done,\n        uint256 createdAt\n    );\n    event TaskToggledDone(uint256 id, bool done);\n\n    mapping(uint256 => Task) public tasks;\n\n    constructor() {\n        createTask(\"Primer tarea\", \"primer tarea por defecto\");\n    }\n\n    function createTask(string memory _title, string memory _description)\n        public\n    {\n        tasksCounter++;\n        tasks[tasksCounter] = Task(\n            tasksCounter,\n            _title,\n            _description,\n            false,\n            block.timestamp\n        );\n        emit TaskCreated(\n            tasksCounter,\n            _title,\n            _description,\n            false,\n            block.timestamp\n        );\n    }\n\n    function toggleDone(uint256 _id) public {\n        Task memory _task = tasks[_id];\n        _task.done = !_task.done;\n        tasks[_id] = _task;\n        emit TaskToggledDone(_id, _task.done);\n    }\n\n    function getTask(uint256 _id)\n        public\n        view\n        returns (\n            uint256 id,\n            string memory title,\n            string memory description,\n            bool done,\n            uint256 createdAt\n        )\n    {\n        Task memory _task = tasks[_id];\n        return (\n            _task.id,\n            _task.title,\n            _task.description,\n            _task.done,\n            _task.createdAt\n        );\n    }\n\n    function getTasks() public view returns (Task[] memory) {\n        Task[] memory _tasks = new Task[](tasksCounter);\n        for (uint256 i = 1; i <= tasksCounter; i++) {\n            _tasks[i - 1] = tasks[i];\n        }\n        return _tasks;\n    }\n\n    function deleteTask(uint256 _id) public {\n        delete tasks[_id];\n    }\n\n    function updateTask(\n        uint256 _id,\n        string memory _title,\n        string memory _description\n    ) public {\n        Task memory _task = tasks[_id];\n        _task.title = _title;\n        _task.description = _description;\n        tasks[_id] = _task;\n    }\n\n    //get address\n    function getAddress() public view returns (address) {\n        return address(this);\n    }\n\n\n}\n",
  "sourcePath": "E:\\Programacion Web 3\\PW3-TPBlockchain\\ManagmentContract\\contracts\\TasksContract.sol",
  "compiler": {
    "name": "solc",
    "version": "0.8.6+commit.11564f7e.Emscripten.clang"
  },
  "schemaVersion": "3.4.16",
  "updatedAt": "2023-11-05T12:05:39.585Z",
  "devdoc": {
    "kind": "dev",
    "methods": {},
    "version": 1
  },
  "userdoc": {
    "kind": "user",
    "methods": {},
    "version": 1
  }
}